{
  "_format": "hh-sol-artifact-1",
  "contractName": "HelloWorld",
  "sourceName": "contracts/HelloWorld.sol",
  "abi": [
    {
      "inputs": [
        {
          "internalType": "uint256",
          "name": "_a",
          "type": "uint256"
        }
      ],
      "stateMutability": "nonpayable",
      "type": "constructor"
    },
    {
      "inputs": [],
      "name": "a",
      "outputs": [
        {
          "internalType": "uint256",
          "name": "",
          "type": "uint256"
        }
      ],
      "stateMutability": "view",
      "type": "function"
    },
    {
      "inputs": [
        {
          "internalType": "uint256",
          "name": "_b",
          "type": "uint256"
        },
        {
          "internalType": "uint256",
          "name": "_c",
          "type": "uint256"
        }
      ],
      "name": "total",
      "outputs": [],
      "stateMutability": "view",
      "type": "function"
    }
  ],
  "bytecode": "0x608060405234801561001057600080fd5b506040516101633803806101638339818101604052602081101561003357600080fd5b810190808051906020019092919050505080600081905550506101088061005b6000396000f3fe6080604052348015600f57600080fd5b506004361060325760003560e01c80630dbe671f1460375780639d515c26146053575b600080fd5b603d6088565b6040518082815260200191505060405180910390f35b608660048036036040811015606757600080fd5b810190808035906020019092919080359060200190929190505050608e565b005b60005481565b60006098838360a7565b905060a18160b9565b50505050565b60008082840190508091505092915050565b600080600054838160c657fe5b0690508091505091905056fea26469706673582212203217025b42b2d518d63a50bfca7c1ecc1eeb27986e6bfd5662866610a7d9358f64736f6c63430007030033",
  "linkReferences": {},
  "deployedLinkReferences": {}
}